{
  "_format": "hh-sol-artifact-1",
  "contractName": "Set001Renderer",
  "sourceName": "contracts/sets/Set001Renderer.sol",
  "abi": [
    {
      "inputs": [
        {
          "internalType": "uint256",
          "name": "",
          "type": "uint256"
        },
        {
          "internalType": "uint8",
          "name": "",
          "type": "uint8"
        },
        {
          "internalType": "uint8",
          "name": "",
          "type": "uint8"
        }
      ],
      "name": "animationUrl",
      "outputs": [
        {
          "internalType": "string",
          "name": "",
          "type": "string"
        }
      ],
      "stateMutability": "pure",
      "type": "function"
    },
    {
      "inputs": [
        {
          "internalType": "uint256",
          "name": "id",
          "type": "uint256"
        },
        {
          "internalType": "uint8",
          "name": "edition",
          "type": "uint8"
        },
        {
          "internalType": "uint8",
          "name": "editionIndex",
          "type": "uint8"
        }
      ],
      "name": "imageUrl",
      "outputs": [
        {
          "internalType": "string",
          "name": "",
          "type": "string"
        }
      ],
      "stateMutability": "view",
      "type": "function"
    },
    {
      "inputs": [
        {
          "internalType": "uint256",
          "name": "index",
          "type": "uint256"
        }
      ],
      "name": "renderColor",
      "outputs": [
        {
          "internalType": "string",
          "name": "",
          "type": "string"
        }
      ],
      "stateMutability": "pure",
      "type": "function"
    }
  ],
  "bytecode": "0x6080604052346200019657620000146200019b565b6f2e3e2f2c2d38323931303b3533363437815260209060008282015260005b600281106200017c5782620000476200019b565b7f2a2b2c24242413140f150f150f0f1019151713004e03004e034e0403014e4e05815273393c3f4041383b3838393a3d3e2a24262929272d828201526000905b60029182811015620000a757818185600194519201940155019062000087565b83620000b26200019b565b7f2f312d3130221e1e24221f1c201f140c0b121313100c0c03024b0302054d4b0581526c3c413e3c42403c433f312e312c8282015260005b60028110620001685782620000fe6200019b565b7f2c3128242b2a2322231e1b1b1d14171d1412150b11150b050b05084c020505058152714d454844454244443d3c373a363b3b2d2d2f8282015260005b60028110620001545760405161191a9081620001d28239f35b81516006820155908201906001016200013b565b8151600482015590820190600101620000ea565b81516001600160801b031681559082019060010162000033565b600080fd5b60408051919082016001600160401b03811183821017620001bb57604052565b634e487b7160e01b600052604160045260246000fdfe608080604052600436101561001357600080fd5b60003560e01c908163220e941d1461107f575080636273ed45146100745763e6b784001461004057600080fd5b3461006f57602036600319011261006f5761006b61005f6004356111a1565b604051918291826110fe565b0390f35b600080fd5b3461006f57610082366110ad565b6040519250610200830167ffffffffffffffff811184821017610e955760405260005b6102008110611071575060ff918083166014811015610edf5750906100c9916115a3565b905b60005b60108110610eab578380516020820151906040830151606084015190604051938493602085017f3c67207472616e73666f726d3d227472616e736c617465283132382c203132389052604085017f2922203e3c75736520687265663d2223317831222066696c6c3d220000000000905280519081605b87019160200191610154926110db565b7f22202f3e3c75736520783d2236342220687265663d22233178315f7472222066605b918601918201526434b6361e9160d91b607b8201526080018082516020819401916101a1926110db565b017f22202f3e3c75736520687265663d222365796522202f3e3c2f673e3c672074728152602081017f616e73666f726d3d227472616e736c617465283235362c2031323829223e3c759052604081017f736520687265663d22233178315f746c222066696c6c3d220000000000000000905281519182605883019160200191610229926110db565b01605801610269906025907f22202f3e3c75736520783d2236342220687265663d22233178315f747222206681526434b6361e9160d91b60208201520190565b80825160208194019161027b926110db565b017f22202f3e3c75736520687265663d222365796522202f3e3c2f673e000000000081520360041981018252601b016102b49082611163565b60808201519160a08101519260c082015160e0830151610100840151610120850151906101408601519261016087015194604051998a97602089017f3c67207472616e73666f726d3d227472616e736c617465283132382c203235369052604089017f29223e3c75736520687265663d2223317831222066696c6c3d22000000000000905280519081605a8b01916020019161034f926110db565b7f22202f3e3c75736520783d2236342220687265663d2223317831222066696c6c605a918a0191820152611e9160f11b607a820152607c01808251602081940191610399926110db565b7f22202f3e3c75736520783d223132382220687265663d2223317831222066696c910190815262361e9160e91b60208201526023018082516020819401916103e0926110db565b017f22202f3e3c75736520783d223139322220687265663d2223317831222066696c81526020810162361e9160e91b905281519182602383019160200191610427926110db565b01602381017f22202f3e3c75736520793d2236342220687265663d22233178315f626c2220669052604381016434b6361e9160d91b905281519182604883019160200191610474926110db565b01604881017f22202f3e3c75736520783d2236342220793d2236342220687265663d222331789052606881017f31222066696c6c3d2200000000000000000000000000000000000000000000009052815191826071830191602001916104d9926110db565b01607181017f22202f3e3c75736520783d223132382220793d2236342220687265663d2223319052609181017f7831222066696c6c3d2200000000000000000000000000000000000000000000905281519182609b8301916020019161053e926110db565b01609b81017f22202f3e3c75736520783d223139322220793d2236342220687265663d222331905260bb81017f78315f6272222066696c6c3d220000000000000000000000000000000000000090528151918260c8830191602001916105a3926110db565b0160c88101671110179f1e17b39f60c11b90520360b08101845260d0016105ca9084611163565b6101808101516101a0820151916101c0810151906101e0015190604051938493602085017f3c67207472616e73666f726d3d227472616e736c617465283132382c203434389052604085017f29223e3c75736520687265663d22233178315f746c222066696c6c3d22000000905280519081605d8701916020019161064e926110db565b7f22202f3e3c75736520783d2236342220687265663d2223317831222066696c6c605d91860191820152611e9160f11b607d820152607f01808251602081940191610698926110db565b7f22202f3e3c75736520783d223132382220687265663d2223317831222066696c910190815262361e9160e91b60208201526023018082516020819401916106df926110db565b017f22202f3e3c75736520783d223139322220687265663d22233178315f747222208152602081017f66696c6c3d220000000000000000000000000000000000000000000000000000905281519182602683019160200191610740926110db565b0160268101671110179f1e17b39f60c11b905203600e81018252602e016107679082611163565b60405192828493519081602086019160200191610783926110db565b83018151918260208301916020019161079b926110db565b01815191826020830191602001916107b2926110db565b01038082526020016107c49082611163565b60405161024081019080821067ffffffffffffffff831117610e9557610e3d6102b561006b94610e4294604052610212845260208401937f4d32312e333620392e38383641332e39333320332e393333203020302030203185527f382038632d312e34323320302d322e36372e3735352d332e333620312e38383760408201527f61332e39333520332e3933352030203020302d342e37353320342e373533413360608201527f2e39333320332e3933332030203020302038203138633020312e3432332e373560808201527f3520322e36363920312e38383620332e333661332e39333520332e393335203060a08201527f2030203020342e37353320342e37353320332e39333320332e3933332030203060c08201527f203020342e38363320312e353920332e39353320332e3935332030203020302060e08201527f312e3835382d312e35383920332e39333520332e39333520302030203020342e6101008201527f3735332d342e37353441332e39333320332e39333320302030203020323820316101208201527f3861332e39333320332e3933332030203020302d312e3838372d332e333620336101408201527f2e39333420332e3933342030203020302d312e3034322d332e37313120332e396101608201527f333420332e3933342030203020302d332e37312d312e3034335a6d2d332e39356101808201527f382031312e37313320342e3536322d362e383434632e3536362d2e3834362d2e6101a08201527f3735312d312e3732342d312e3331362d2e3837386c2d342e30323620362e30346101c08201527f332d312e3337312d312e333638632d2e3731372d2e3732322d312e3833362e336101e08201527f39362d312e31313620312e3131366c322e313720322e3135612e3738382e37386102008201527f3820302030203020312e3039372d2e32325a00000000000000000000000000006102208201527f22202f3e3c672069643d22657965223e3c75736520793d2236342220687265666040519586937f3c7376672077696474683d223134303022206865696768743d2231343030222060208601527f76696577426f783d2230203020353132203531322220786d6c6e733d2268747460408601527f703a2f2f7777772e77332e6f72672f323030302f737667223e3c72656374207760608601527f696474683d2235313222206865696768743d22353132222066696c6c3d22233060808601527f303022202f3e3c75736520783d223437322220793d2231333122207472616e7360a08601527f666f726d3d227363616c6528302e38292220687265663d2223636865636b222060c08601527f66696c6c3d222366666622202f3e00000000000000000000000000000000000060e08601527f3c673e000000000000000000000000000000000000000000000000000000000060ee860152610bf381518092602060f1890191016110db565b84017f3c2f673e3c646566733e3c726563742069643d22317831222077696474683d2260f18201527f363422206865696768743d22363422202f3e3c706174682069643d223178315f6101118201527f746c2220643d224d2036342030412036342036342c20302c20302c20302c20306101318201527f2036344c203634203634205a222f3e3c706174682069643d223178315f7472226101518201527f20643d224d20302030412036342036342c20302c20302c20312c2036342036346101718201527f4c2030203634205a222f3e3c706174682069643d223178315f626c2220643d226101918201527f4d20302030412036342036342c20302c20302c20302c2036342036344c2036346101b18201527f2030205a222f3e3c706174682069643d223178315f62722220643d224d2036346101d18201527f2030412036342036342c20302c20302c20312c20302036344c20302030205a226101f18201527f2f3e3c706174682069643d22636865636b222066696c6c2d72756c653d2265766102118201527f656e6f64642220643d2200000000000000000000000000000000000000000000610231820152610db461023b94518093868401906110db565b01918201527f3d22233178315f626c222066696c6c3d222366666622202f3e3c75736520783d61025b8201527f2236342220793d2236342220687265663d22233178315f6272222066696c6c3d61027b8201527f222330303022202f3e3c2f673e3c2f646566733e3c2f7376673e00000000000061029b82015203610295810184520182611163565b611380565b61005f603a60405180937f646174613a696d6167652f7376672b786d6c3b6261736536342c0000000000006020830152610e8581518092602086860191016110db565b810103601a810184520182611163565b634e487b7160e01b600052604160045260246000fd5b80610ec383610ebc60019487611526565b51166111a1565b610ecd8287611550565b52610ed88186611550565b50016100ce565b80949291501561105b57610eff90610efa8560500491611561565b611574565b90604051610f0c81611146565b6010946010825261020036602084013760288103610f5c5750909183169060005b84811686811015610f4f57859184610f4760019386611526565b520116610f2d565b5050919350505b906100cb565b6014919392955014610f6f575b50610f56565b9192909183168360005b81811690836004831015610f9d57610f9360019388611526565b5201168490610f79565b5050505090600090600583018560508180841193160616925b86811660088110156110005782610fea57600401878111610fea57879185610fe284600194168a611526565b520116610fb6565b634e487b7160e01b600052601160045260246000fd5b505050919050600a60009101918460508180861195160616915b858116600481101561104e5784610fea57600c01868111610fea57869184611046846001941689611526565b52011661101a565b5050939291505083610f69565b634e487b7160e01b600052601260045260246000fd5b6060848201526020016100a5565b3461006f5761006b90611091366110ad565b50505061109d8161112a565b60008152604051918291826110fe565b606090600319011261006f576004359060243560ff8116810361006f579060443560ff8116810361006f5790565b60005b8381106110ee5750506000910152565b81810151838201526020016110de565b6040916020825261111e81518092816020860152602086860191016110db565b601f01601f1916010190565b6020810190811067ffffffffffffffff821117610e9557604052565b610220810190811067ffffffffffffffff821117610e9557604052565b90601f8019910116810190811067ffffffffffffffff821117610e9557604052565b67ffffffffffffffff8111610e9557601f01601f191660200190565b6040908151907f5022b5e90000000000000000000000000000000000000000000000000000000082526000808360048173__$224ed50b59985f2249eaf2a52fb33293d3$__5af4928315611374578193611271575b50605082101561125d575061125a9160219160051b0151925180937f2300000000000000000000000000000000000000000000000000000000000000602083015261124a81518092602086860191016110db565b8101036001810184520182611163565b90565b80634e487b7160e01b602492526032600452fd5b9092503d8084833e6112838183611163565b810190602090818184031261137057805167ffffffffffffffff9182821161136c570190601f9380601f8401121561136c57875194610a009283870187811082821117611358578a5286938501948386116113545780945b8686106112f157505050505050505091386111f6565b85518381116113505782018585820112156113505780518d9161131f61131683611185565b93519384611163565b818352878b838301011161134c57916113418b949285948580850191016110db565b8152019501946112db565b8d80fd5b8b80fd5b8980fd5b60248a634e487b7160e01b81526041600452fd5b8680fd5b8480fd5b508351903d90823e3d90fd5b9081511561151157604051916060830183811067ffffffffffffffff821117610e9557604052604083527f4142434445464748494a4b4c4d4e4f505152535455565758595a61626364656660208401527f6768696a6b6c6d6e6f707172737475767778797a303132333435363738392b2f604084015280519260029160028501809511610fea576003809504928360021b937f3fffffffffffffffffffffffffffffffffffffffffffffffffffffffffffffff811603610fea579461145d61144785611185565b946114556040519687611163565b808652611185565b6020850190601f190136823792829183518401976020890192835194600085525b8a81106114c4575050505060039394959650525106806001146114b1576002146114a6575090565b603d90600019015390565b50603d9081600019820153600119015390565b836004919b989b019a8b51600190603f9082828260121c16870101518453828282600c1c16870101518385015382828260061c16870101518785015316840101518582015301969961147e565b905060405161151f8161112a565b6000815290565b805182101561153a5760209160051b010190565b634e487b7160e01b600052603260045260246000fd5b90601081101561153a5760051b0190565b60ff6000199116019060ff8211610fea57565b9060ff8091169116029060ff8216918203610fea57565b67ffffffffffffffff8111610e955760051b60200190565b610efa9160ff809216600191836115cc848414926000846000146118b957506010978891611561565b9516946115d88661158b565b9560406115e86040519889611163565b8188526115f48261158b565b60209190601f1901368a8401376000938816875b6117e8575b50505050506117e257939291906040519261162784611146565b60109060108552610200366020870137600080976004908560048214905b611657575b5096985050505050505050565b878b16868110156117dc5781806117b7575b156116a65797878c8b611699849d9e9f9c85611691869f61168a8391611561565b1685611526565b511692611526565b525b01169a999897611645565b6005831480611788575b156116d75797878c8b6116d1849d9e9f9c85611691869f61168a8391611561565b5261169b565b8b600a898186149283611746575b50505060001461170b5797878c8b6116d1849d9e9f9c85611691869f61168a8391611561565b888516898114611731578a9b9c8a9b6116d18c94856116918e9f8f8098019c168d611526565b601185634e487b7160e01b6000525260246000fd5b8116149150811561177d575b8115611773575b508015611769575b38898e6116e5565b50600c8111611761565b9050811438611759565b600683149150611752565b50838111806117ad575b806116b057506008811180156116b0575087808d16146116b0565b5060088110611792565b506007811480156117d2575b806116695750600d8114611669565b50600b81146117c3565b5061164a565b50505090565b888516848110156118b357808201908a8211610fea576005966000891561188b57506000975b8551986000908d8b5b8a600285106118775750505050508589019089821067ffffffffffffffff831117610e95578460079160029389521c16101561153a578c61186e8c99938e8660f88d9760e0849a1601519160031b161c1692611526565b52011694611608565b829184548152019201920191908e90611817565b6004908b82036118a057505060025b9761180e565b50888b1460000361189a5750600661189a565b5061160d565b600486036118cd5750600d5b978891611561565b50600585036118dd5760096118c5565b60056118c556fea26469706673582212209595080b39cc837a52ec0950283b29c180a431ed00f0ee886f2961f88fc253df64736f6c63430008180033",
  "linkReferences": {
    "contracts/sets/checks/libraries/EightyColors.sol": {
      "EightyColors": [
        {
          "length": 20,
          "start": 5029
        }
      ]
    }
  },
  "deployedLinkReferences": {
    "contracts/sets/checks/libraries/EightyColors.sol": {
      "EightyColors": [
        {
          "length": 20,
          "start": 4563
        }
      ]
    }
  }
}