{
  "_format": "hh-sol-artifact-1",
  "contractName": "EightyColors",
  "sourceName": "contracts/sets/checks/libraries/EightyColors.sol",
  "abi": [
    {
      "inputs": [],
      "name": "COLORS",
      "outputs": [
        {
          "internalType": "string[80]",
          "name": "",
          "type": "string[80]"
        }
      ],
      "stateMutability": "pure",
      "type": "function"
    }
  ],
  "bytecode": "0x6080806040523461001a576112669081610020823930815050f35b600080fdfe6080600436101561000f57600080fd5b600090813560e01c635022b5e91461002657600080fd5b816003193601126111f657610a009067ffffffffffffffff90808301828111828210176111e257604052835b8381106111d4575050604051918201908111828210176111c0576040526100776111fa565b9060068083526020927f45383441413900000000000000000000000000000000000000000000000000008482015282526100af6111fa565b8181527f463233393944000000000000000000000000000000000000000000000000000084820152838301526100e36111fa565b8181527f44423246393600000000000000000000000000000000000000000000000000008482015260408301526101186111fa565b8181527f453733453835000000000000000000000000000000000000000000000000000084820152606083015261014d6111fa565b8181527f46463746384500000000000000000000000000000000000000000000000000008482015260808301526101826111fa565b8181527f46413542363700000000000000000000000000000000000000000000000000008482015260a08301526101b76111fa565b8181527f45383432344500000000000000000000000000000000000000000000000000008482015260c08301526101ec6111fa565b8181527f44353333324600000000000000000000000000000000000000000000000000008482015260e08301526102216111fa565b8181527f4332333533320000000000000000000000000000000000000000000000000000848201526101008301526102576111fa565b8181527f46323238314300000000000000000000000000000000000000000000000000008482015261012083015261028d6111fa565b8181527f4434313531350000000000000000000000000000000000000000000000000000848201526101408301526102c36111fa565b8181527f3944323632460000000000000000000000000000000000000000000000000000848201526101608301526102f96111fa565b8181527f44453332333700000000000000000000000000000000000000000000000000008482015261018083015261032f6111fa565b8181527f4441333332310000000000000000000000000000000000000000000000000000848201526101a08301526103656111fa565b8181527f4541334132440000000000000000000000000000000000000000000000000000848201526101c083015261039b6111fa565b8181527f4542343432390000000000000000000000000000000000000000000000000000848201526101e08301526103d16111fa565b8181527f4543373336380000000000000000000000000000000000000000000000000000848201526102008301526104076111fa565b8181527f46463830373900000000000000000000000000000000000000000000000000008482015261022083015261043d6111fa565b8181527f4646393139330000000000000000000000000000000000000000000000000000848201526102408301526104736111fa565b8181527f4541354233330000000000000000000000000000000000000000000000000000848201526102608301526104a96111fa565b8181527f4430354333350000000000000000000000000000000000000000000000000000848201526102808301526104df6111fa565b8181527f4544374333300000000000000000000000000000000000000000000000000000848201526102a08301526105156111fa565b8181527f4546393933330000000000000000000000000000000000000000000000000000848201526102c083015261054b6111fa565b8181527f4546384333370000000000000000000000000000000000000000000000000000848201526102e08301526105816111fa565b8181527f4631383933300000000000000000000000000000000000000000000000000000848201526103008301526105b76111fa565b8181527f4630393833370000000000000000000000000000000000000000000000000000848201526103208301526105ed6111fa565b8181527f4639413435430000000000000000000000000000000000000000000000000000848201526103408301526106236111fa565b8181527f4632413433410000000000000000000000000000000000000000000000000000848201526103608301526106596111fa565b8181527f46324138343000000000000000000000000000000000000000000000000000008482015261038083015261068f6111fa565b8181527f4632413933430000000000000000000000000000000000000000000000000000848201526103a08301526106c56111fa565b8181527f4646423334300000000000000000000000000000000000000000000000000000848201526103c08301526106fb6111fa565b8181527f4632423334310000000000000000000000000000000000000000000000000000848201526103e08301526107316111fa565b8181527f4641443036340000000000000000000000000000000000000000000000000000848201526104008301526107676111fa565b8181527f46374341353700000000000000000000000000000000000000000000000000008482015261042083015261079d6111fa565b8181527f4636434234350000000000000000000000000000000000000000000000000000848201526104408301526107d36111fa565b8181527f4646414230300000000000000000000000000000000000000000000000000000848201526104608301526108096111fa565b8181527f46344334344100000000000000000000000000000000000000000000000000008482015261048083015261083f6111fa565b8181527f4643444535420000000000000000000000000000000000000000000000000000848201526104a08301526108756111fa565b8181527f4639444134440000000000000000000000000000000000000000000000000000848201526104c08301526108ab6111fa565b8181527f4639444134410000000000000000000000000000000000000000000000000000848201526104e08301526108e16111fa565b8181527f4641453237320000000000000000000000000000000000000000000000000000848201526105008301526109176111fa565b8181527f46394442343900000000000000000000000000000000000000000000000000008482015261052083015261094d6111fa565b8181527f4641453636330000000000000000000000000000000000000000000000000000848201526105408301526109836111fa565b8181527f4642454135420000000000000000000000000000000000000000000000000000848201526105608301526109b96111fa565b8181527f4137434134350000000000000000000000000000000000000000000000000000848201526105808301526109ef6111fa565b8181527f4235463133420000000000000000000000000000000000000000000000000000848201526105a0830152610a256111fa565b8181527f3934453333370000000000000000000000000000000000000000000000000000848201526105c0830152610a5b6111fa565b8181527f3633433233430000000000000000000000000000000000000000000000000000848201526105e0830152610a916111fa565b8181527f383645343845000000000000000000000000000000000000000000000000000084820152610600830152610ac76111fa565b8181527f373745333946000000000000000000000000000000000000000000000000000084820152610620830152610afd6111fa565b8181527f354643443843000000000000000000000000000000000000000000000000000084820152610640830152610b336111fa565b8181527f383346314145000000000000000000000000000000000000000000000000000084820152610660830152610b696111fa565b8181527f394445464246000000000000000000000000000000000000000000000000000084820152610680830152610b9f6111fa565b8181527f3245394439410000000000000000000000000000000000000000000000000000848201526106a0830152610bd56111fa565b8181527f3345423841310000000000000000000000000000000000000000000000000000848201526106c0830152610c0b6111fa565b8181527f3546433942460000000000000000000000000000000000000000000000000000848201526106e0830152610c416111fa565b8181527f373744334445000000000000000000000000000000000000000000000000000084820152610700830152610c776111fa565b8181527f364144314445000000000000000000000000000000000000000000000000000084820152610720830152610cad6111fa565b8181527f354142414433000000000000000000000000000000000000000000000000000084820152610740830152610ce36111fa565b8181527f343239314138000000000000000000000000000000000000000000000000000084820152610760830152610d196111fa565b8181527f333337353844000000000000000000000000000000000000000000000000000084820152610780830152610d4f6111fa565b8181527f3435423244330000000000000000000000000000000000000000000000000000848201526107a0830152610d856111fa565b8181527f3831443145430000000000000000000000000000000000000000000000000000848201526107c0830152610dbb6111fa565b8181527f4137444446390000000000000000000000000000000000000000000000000000848201526107e0830152610df16111fa565b8181527f394144394642000000000000000000000000000000000000000000000000000084820152610800830152610e276111fa565b8181527f413443384545000000000000000000000000000000000000000000000000000084820152610820830152610e5d6111fa565b8181527f363042314634000000000000000000000000000000000000000000000000000084820152610840830152610e936111fa565b8181527f323438304244000000000000000000000000000000000000000000000000000084820152610860830152610ec96111fa565b8181527f343537364430000000000000000000000000000000000000000000000000000084820152610880830152610eff6111fa565b8181527f3332363344300000000000000000000000000000000000000000000000000000848201526108a0830152610f356111fa565b8181527f3245343938350000000000000000000000000000000000000000000000000000848201526108c0830152610f6b6111fa565b8181527f3235343338430000000000000000000000000000000000000000000000000000848201526108e0830152610fa16111fa565b8181527f353235454141000000000000000000000000000000000000000000000000000084820152610900830152610fd76111fa565b8181527f33443433423300000000000000000000000000000000000000000000000000008482015261092083015261100d6111fa565b8181527f3332324639320000000000000000000000000000000000000000000000000000848201526109408301526110436111fa565b8181527f3441323338370000000000000000000000000000000000000000000000000000848201526109608301526110796111fa565b8181527f3337313437310000000000000000000000000000000000000000000000000000848201526109808301526110af6111fa565b8181527f3342303838430000000000000000000000000000000000000000000000000000848201526109a08301526110e56111fa565b8181527f3643333144370000000000000000000000000000000000000000000000000000848201526109c083015261111b6111fa565b9081527f3937343144410000000000000000000000000000000000000000000000000000838201526109e082015260405191808301818452610a2084019291855b6050811061116a5785850386f35b9091929382601f198088840301865286518051908185528a5b8281106111ac57505080840183018a9052601f011690910181019481019301919060010161115c565b818101850151868201860152879401611183565b602483634e487b7160e01b81526041600452fd5b606082820152602001610052565b602485634e487b7160e01b81526041600452fd5b5080fd5b604051906040820182811067ffffffffffffffff82111761121a57604052565b634e487b7160e01b600052604160045260246000fdfea2646970667358221220f99b4c26e3038704a060fc07fccf9fb1fabc9de276d4048bddc7cd76a446f04a64736f6c63430008180033",
  "linkReferences": {},
  "deployedLinkReferences": {}
}